:020000040800F2
:1000000030070020290200088F030008870300083A
:100010008B030008D9020008F70500080000000063
:10002000000000000000000000000000B503000810
:10003000DD0200080000000091030008A50400088C
:10004000430200084302000843020008430200087C
:10005000430200084302000843020008430200086C
:10006000430200084302000843020008430200085C
:10007000430200084302000843020008430200084C
:10008000430200084302000843020008430200083C
:10009000430200084302000843020008430200082C
:1000A000430200084302000843020008430200081C
:1000B000430200084302000843020008430200080C
:1000C00043020008430200084302000843020008FC
:1000D000430200081105000843020008430200081B
:1000E00043020008430200084302000843020008DC
:1000F00043020008430200084302000843020008CC
:1001000043020008430200084302000843020008BB
:1001100043020008430200084302000843020008AB
:10012000430200084302000843020008430200089B
:10013000430200084302000843020008430200088B
:10014000430200084302000843020008430200087B
:10015000430200084302000843020008430200086B
:10016000430200084302000843020008430200085B
:10017000430200084302000843020008430200084B
:10018000430200084302000800F002F800F03CF8C7
:100190000AA090E8000C82448344AAF10107DA45E2
:1001A00001D100F031F8AFF2090EBAE80F0013F0F8
:1001B000010F18BFFB1A43F001031847AC040000FD
:1001C000CC040000103A24BF78C878C1FAD852078E
:1001D00024BF30C830C144BF04680C6070470000C1
:1001E0000023002400250026103A28BF78C1FBD840
:1001F000520728BF30C148BF0B6070471FB500F0E1
:100200002DFA1FBD10B510BD00F033F81146FFF7F1
:10021000F5FF00F0F5F900F051F803B4FFF7F2FF35
:1002200003BC00F0EAF9000009488047094800478C
:10023000FEE7FEE7FEE7FEE7FEE7FEE7FEE7FEE796
:10024000FEE7FEE704480549054A064B70470000F3
:10025000A9040008890100083001002030070020AF
:10026000300300203003002070477047704770470C
:100270007047754600F02CF8AE46050069465346B7
:1002800020F00700854618B020B5FFF7DBFFBDE87A
:1002900020404FF000064FF000074FF000084FF0ED
:1002A000000B21F00701AC46ACE8C009ACE8C0097E
:1002B000ACE8C009ACE8C0098D46704710B50446EB
:1002C000AFF300802046BDE81040FFF7A6BF000056
:1002D00000487047D000002000BFFEE7704701B51E
:1002E00000BF0098411E00910028FAD108BDF0B56A
:1002F0000A4600210023002400BF3DE0012505FA45
:1003000001F3156805EA03049C4234D105684F00E7
:100310000326BE40B543056015794E00B54006681A
:10032000354305601579012D02D01579022D16D1BE
:1003300085684F000326BE40B543856055794E0061
:10034000B540866835438560456801268E40B543D3
:100350004560456896798E40B6B235434560C568BC
:100360004F000326BE40B543C560D5794E00B54069
:10037000C6683543C560491C1029BFD3F0BD418311
:1003800070470183704700BFFEE700BFFEE770477C
:100390007047000029B1064A12680243044B1A60F4
:1003A00004E0034A12688243014B1A607047000060
:1003B00030380240704700000CB5002001900090DA
:1003C0003448006840F480303249086000BF31484A
:1003D000006800F4003000900198401C01900098E3
:1003E00018B90198B0F5A04FF1D12A48006800F47F
:1003F000003010B10120009001E000200090009832
:10040000012846D123484030006840F080502149FF
:10041000403108602048006840F440401E490860B0
:100420001C48083000681B4908310860084600680D
:1004300040F4004008600846006840F4A05008609E
:100440001648091F0860081F006840F08070091FE7
:10045000086000BF0F48006800F000700028F9D065
:1004600040F205700E4908600A480830006820F024
:1004700003000849083108600846006840F002009F
:10048000086000BF03480830006800F00C0008282E
:10049000F8D10CBD003802400070004008544007FD
:1004A000003C02407047000010B51548006840F459
:1004B0007000134908601348006840F001001149BA
:1004C000086000200F49083108600E4800680E4996
:1004D00008400C4908600D48091D0860081F0068A5
:1004E00020F48020091F0860002006490C310860B4
:1004F000FFF762FF4FF0006001498039086010BDCE
:1005000088ED00E000380240FFFFF6FE10300024C6
:1005100010B540F225511D4800F03EF810B31B48BD
:1005200000F064F8C4B21A48008800F40040C8B96A
:100530001748008800F4804060B10A2C03D00020E6
:100540001349088020E01248008840F40040104918
:10055000088019E00D2C06D10D48008840F4804039
:100560000B49088010E00A480088C0F30D000949D3
:100570000C5407480088401C05490880084600883C
:10058000C72801DD0020088010BD000000100140D8
:10059000040000200800002070B50246002400235B
:1005A0000025002040F66A16B14200D100BFC1F319
:1005B000421501F01F03012606FA03F3012D02D1B3
:1005C0009689334006E0022D02D1168A334001E0BD
:1005D000968A33400C12012606FA04F41688344039
:1005E00013B10CB1012000E0002070BD01468888E5
:1005F000C0F30800704700BFFEE700BF704700006F
:100600001CB501212020FFF7C5FE4FF4C06000900B
:1006100001208DF8040000208DF8060003208DF8DD
:10062000050001208DF8070069460A48FFF75FFEC4
:100630000FE04FF4C0610748FFF7A3FE0648FFF73D
:100640004EFE4FF4C0610348FFF799FE0248FFF7E2
:1006500046FEEEE700140240FFFF7F004FF04070BF
:10066000E1EE100A70470000880600080000002034
:1006700008000000C40100089006000808000020DF
:1006800028070000E0010008000000000000000052
:040000050800018965
:00000001FF
